{
  "_format": "hh-sol-artifact-1",
  "contractName": "JewelryManagement",
  "sourceName": "contracts/JewelryManagement.sol",
  "address": "0xBe2249d2fe3Ac5d3c3c7994658026b4b29E5ABed",
  "abi": [
    {
      "inputs": [
        {
          "internalType": "address",
          "name": "_owner",
          "type": "address"
        }
      ],
      "stateMutability": "nonpayable",
      "type": "constructor"
    },
    {
      "inputs": [
        {
          "internalType": "address",
          "name": "owner",
          "type": "address"
        }
      ],
      "name": "OwnableInvalidOwner",
      "type": "error"
    },
    {
      "inputs": [
        {
          "internalType": "address",
          "name": "account",
          "type": "address"
        }
      ],
      "name": "OwnableUnauthorizedAccount",
      "type": "error"
    },
    {
      "anonymous": false,
      "inputs": [
        {
          "indexed": true,
          "internalType": "uint256",
          "name": "id",
          "type": "uint256"
        },
        {
          "indexed": false,
          "internalType": "uint256",
          "name": "weight",
          "type": "uint256"
        },
        {
          "indexed": false,
          "internalType": "string",
          "name": "hallmark",
          "type": "string"
        }
      ],
      "name": "JewelryAdded",
      "type": "event"
    },
    {
      "anonymous": false,
      "inputs": [
        {
          "indexed": true,
          "internalType": "address",
          "name": "previousOwner",
          "type": "address"
        },
        {
          "indexed": true,
          "internalType": "address",
          "name": "newOwner",
          "type": "address"
        }
      ],
      "name": "OwnershipTransferred",
      "type": "event"
    },
    {
      "inputs": [
        {
          "internalType": "uint256",
          "name": "_weight",
          "type": "uint256"
        },
        {
          "internalType": "string",
          "name": "_hallmark",
          "type": "string"
        },
        {
          "internalType": "string",
          "name": "_originDetails",
          "type": "string"
        },
        {
          "internalType": "string",
          "name": "_manufacturerDetails",
          "type": "string"
        },
        {
          "internalType": "string",
          "name": "_designerDetails",
          "type": "string"
        },
        {
          "internalType": "uint256",
          "name": "_purity",
          "type": "uint256"
        },
        {
          "internalType": "string[]",
          "name": "_metalDetails",
          "type": "string[]"
        }
      ],
      "name": "addJewelry",
      "outputs": [],
      "stateMutability": "nonpayable",
      "type": "function"
    },
    {
      "inputs": [
        {
          "internalType": "uint256",
          "name": "_id",
          "type": "uint256"
        }
      ],
      "name": "getJewelryDetails",
      "outputs": [
        {
          "internalType": "uint256",
          "name": "weight",
          "type": "uint256"
        },
        {
          "internalType": "string",
          "name": "hallmark",
          "type": "string"
        },
        {
          "internalType": "string",
          "name": "originDetails",
          "type": "string"
        },
        {
          "internalType": "string",
          "name": "manufacturerDetails",
          "type": "string"
        },
        {
          "internalType": "string",
          "name": "designerDetails",
          "type": "string"
        },
        {
          "internalType": "uint256",
          "name": "purity",
          "type": "uint256"
        },
        {
          "internalType": "string[]",
          "name": "metalDetails",
          "type": "string[]"
        }
      ],
      "stateMutability": "view",
      "type": "function"
    },
    {
      "inputs": [],
      "name": "jewelryCount",
      "outputs": [
        {
          "internalType": "uint256",
          "name": "",
          "type": "uint256"
        }
      ],
      "stateMutability": "view",
      "type": "function"
    },
    {
      "inputs": [
        {
          "internalType": "uint256",
          "name": "",
          "type": "uint256"
        }
      ],
      "name": "jewelryList",
      "outputs": [
        {
          "internalType": "uint256",
          "name": "weight",
          "type": "uint256"
        },
        {
          "internalType": "string",
          "name": "hallmark",
          "type": "string"
        },
        {
          "internalType": "string",
          "name": "originDetails",
          "type": "string"
        },
        {
          "internalType": "string",
          "name": "manufacturerDetails",
          "type": "string"
        },
        {
          "internalType": "string",
          "name": "designerDetails",
          "type": "string"
        },
        {
          "internalType": "uint256",
          "name": "purity",
          "type": "uint256"
        }
      ],
      "stateMutability": "view",
      "type": "function"
    },
    {
      "inputs": [],
      "name": "owner",
      "outputs": [
        {
          "internalType": "address",
          "name": "",
          "type": "address"
        }
      ],
      "stateMutability": "view",
      "type": "function"
    },
    {
      "inputs": [],
      "name": "renounceOwnership",
      "outputs": [],
      "stateMutability": "nonpayable",
      "type": "function"
    },
    {
      "inputs": [
        {
          "internalType": "address",
          "name": "newOwner",
          "type": "address"
        }
      ],
      "name": "transferOwnership",
      "outputs": [],
      "stateMutability": "nonpayable",
      "type": "function"
    }
  ],
  "bytecode": "0x60806040523480156200001157600080fd5b5060405162001bbd38038062001bbd8339818101604052810190620000379190620001fc565b80600073ffffffffffffffffffffffffffffffffffffffff168173ffffffffffffffffffffffffffffffffffffffff1603620000ad5760006040517f1e4fbdf7000000000000000000000000000000000000000000000000000000008152600401620000a491906200023f565b60405180910390fd5b620000be81620000ce60201b60201c565b506000600381905550506200025c565b60008060009054906101000a900473ffffffffffffffffffffffffffffffffffffffff169050816000806101000a81548173ffffffffffffffffffffffffffffffffffffffff021916908373ffffffffffffffffffffffffffffffffffffffff1602179055508173ffffffffffffffffffffffffffffffffffffffff168173ffffffffffffffffffffffffffffffffffffffff167f8be0079c531659141344cd1fd0a4f28419497f9722a3daafe3b4186f6b6457e060405160405180910390a35050565b600080fd5b600073ffffffffffffffffffffffffffffffffffffffff82169050919050565b6000620001c48262000197565b9050919050565b620001d681620001b7565b8114620001e257600080fd5b50565b600081519050620001f681620001cb565b92915050565b60006020828403121562000215576200021462000192565b5b60006200022584828501620001e5565b91505092915050565b6200023981620001b7565b82525050565b60006020820190506200025660008301846200022e565b92915050565b611951806200026c6000396000f3fe608060405234801561001057600080fd5b506004361061007d5760003560e01c8063822df5561161005b578063822df556146100c65780638da5cb5b146100fb578063c95a753614610119578063f2fde38b1461014f5761007d565b8063255deab914610082578063590091a21461009e578063715018a6146100bc575b600080fd5b61009c60048036038101906100979190610f44565b61016b565b005b6100a66102df565b6040516100b39190611081565b60405180910390f35b6100c46102e5565b005b6100e060048036038101906100db919061109c565b6102f9565b6040516100f296959493929190611148565b60405180910390f35b610103610555565b6040516101109190611206565b60405180910390f35b610133600480360381019061012e919061109c565b61057e565b604051610146979695949392919061132d565b60405180910390f35b610169600480360381019061016491906113eb565b61097e565b005b610173610a04565b600061017d610a8b565b905060006040518060e001604052808a815260200189815260200188815260200187815260200186815260200185815260200184815250905080600160008481526020019081526020016000206000820151816000015560208201518160010190816101e99190611624565b5060408201518160020190816101ff9190611624565b5060608201518160030190816102159190611624565b50608082015181600401908161022b9190611624565b5060a0820151816005015560c0820151816006019080519060200190610252929190610bf4565b5090505060016002600084815260200190815260200160002060006101000a81548160ff021916908315150217905550817f3a8a8f60fa05ac636726779bc299e193e53edc0d76dd752186d44f5525ee95ff8a8a6040516102b49291906116f6565b60405180910390a2600360008154809291906102cf90611755565b9190505550505050505050505050565b60035481565b6102ed610a04565b6102f76000610b28565b565b600160205280600052604060002060009150905080600001549080600101805461032290611447565b80601f016020809104026020016040519081016040528092919081815260200182805461034e90611447565b801561039b5780601f106103705761010080835404028352916020019161039b565b820191906000526020600020905b81548152906001019060200180831161037e57829003601f168201915b5050505050908060020180546103b090611447565b80601f01602080910402602001604051908101604052809291908181526020018280546103dc90611447565b80156104295780601f106103fe57610100808354040283529160200191610429565b820191906000526020600020905b81548152906001019060200180831161040c57829003601f168201915b50505050509080600301805461043e90611447565b80601f016020809104026020016040519081016040528092919081815260200182805461046a90611447565b80156104b75780601f1061048c576101008083540402835291602001916104b7565b820191906000526020600020905b81548152906001019060200180831161049a57829003601f168201915b5050505050908060040180546104cc90611447565b80601f01602080910402602001604051908101604052809291908181526020018280546104f890611447565b80156105455780601f1061051a57610100808354040283529160200191610545565b820191906000526020600020905b81548152906001019060200180831161052857829003601f168201915b5050505050908060050154905086565b60008060009054906101000a900473ffffffffffffffffffffffffffffffffffffffff16905090565b6000606080606080600060606002600089815260200190815260200160002060009054906101000a900460ff166105ea576040517f08c379a00000000000000000000000000000000000000000000000000000000081526004016105e1906117e9565b60405180910390fd5b6000600160008a81526020019081526020016000206040518060e00160405290816000820154815260200160018201805461062490611447565b80601f016020809104026020016040519081016040528092919081815260200182805461065090611447565b801561069d5780601f106106725761010080835404028352916020019161069d565b820191906000526020600020905b81548152906001019060200180831161068057829003601f168201915b505050505081526020016002820180546106b690611447565b80601f01602080910402602001604051908101604052809291908181526020018280546106e290611447565b801561072f5780601f106107045761010080835404028352916020019161072f565b820191906000526020600020905b81548152906001019060200180831161071257829003601f168201915b5050505050815260200160038201805461074890611447565b80601f016020809104026020016040519081016040528092919081815260200182805461077490611447565b80156107c15780601f10610796576101008083540402835291602001916107c1565b820191906000526020600020905b8154815290600101906020018083116107a457829003601f168201915b505050505081526020016004820180546107da90611447565b80601f016020809104026020016040519081016040528092919081815260200182805461080690611447565b80156108535780601f1061082857610100808354040283529160200191610853565b820191906000526020600020905b81548152906001019060200180831161083657829003601f168201915b505050505081526020016005820154815260200160068201805480602002602001604051908101604052809291908181526020016000905b828210156109375783829060005260206000200180546108aa90611447565b80601f01602080910402602001604051908101604052809291908181526020018280546108d690611447565b80156109235780601f106108f857610100808354040283529160200191610923565b820191906000526020600020905b81548152906001019060200180831161090657829003601f168201915b50505050508152602001906001019061088b565b50505050815250509050806000015181602001518260400151836060015184608001518560a001518660c00151975097509750975097509750975050919395979092949650565b610986610a04565b600073ffffffffffffffffffffffffffffffffffffffff168173ffffffffffffffffffffffffffffffffffffffff16036109f85760006040517f1e4fbdf70000000000000000000000000000000000000000000000000000000081526004016109ef9190611206565b60405180910390fd5b610a0181610b28565b50565b610a0c610bec565b73ffffffffffffffffffffffffffffffffffffffff16610a2a610555565b73ffffffffffffffffffffffffffffffffffffffff1614610a8957610a4d610bec565b6040517f118cdaa7000000000000000000000000000000000000000000000000000000008152600401610a809190611206565b60405180910390fd5b565b6000804233600354604051602001610aa593929190611872565b6040516020818303038152906040528051906020012060001c90506002600082815260200190815260200160002060009054906101000a900460ff1615610b21576040517f08c379a0000000000000000000000000000000000000000000000000000000008152600401610b18906118fb565b60405180910390fd5b8091505090565b60008060009054906101000a900473ffffffffffffffffffffffffffffffffffffffff169050816000806101000a81548173ffffffffffffffffffffffffffffffffffffffff021916908373ffffffffffffffffffffffffffffffffffffffff1602179055508173ffffffffffffffffffffffffffffffffffffffff168173ffffffffffffffffffffffffffffffffffffffff167f8be0079c531659141344cd1fd0a4f28419497f9722a3daafe3b4186f6b6457e060405160405180910390a35050565b600033905090565b828054828255906000526020600020908101928215610c3c579160200282015b82811115610c3b578251829081610c2b9190611624565b5091602001919060010190610c14565b5b509050610c499190610c4d565b5090565b5b80821115610c6d5760008181610c649190610c71565b50600101610c4e565b5090565b508054610c7d90611447565b6000825580601f10610c8f5750610cae565b601f016020900490600052602060002090810190610cad9190610cb1565b5b50565b5b80821115610cca576000816000905550600101610cb2565b5090565b6000604051905090565b600080fd5b600080fd5b6000819050919050565b610cf581610ce2565b8114610d0057600080fd5b50565b600081359050610d1281610cec565b92915050565b600080fd5b600080fd5b6000601f19601f8301169050919050565b7f4e487b7100000000000000000000000000000000000000000000000000000000600052604160045260246000fd5b610d6b82610d22565b810181811067ffffffffffffffff82111715610d8a57610d89610d33565b5b80604052505050565b6000610d9d610cce565b9050610da98282610d62565b919050565b600067ffffffffffffffff821115610dc957610dc8610d33565b5b610dd282610d22565b9050602081019050919050565b82818337600083830152505050565b6000610e01610dfc84610dae565b610d93565b905082815260208101848484011115610e1d57610e1c610d1d565b5b610e28848285610ddf565b509392505050565b600082601f830112610e4557610e44610d18565b5b8135610e55848260208601610dee565b91505092915050565b600067ffffffffffffffff821115610e7957610e78610d33565b5b602082029050602081019050919050565b600080fd5b6000610ea2610e9d84610e5e565b610d93565b90508083825260208201905060208402830185811115610ec557610ec4610e8a565b5b835b81811015610f0c57803567ffffffffffffffff811115610eea57610ee9610d18565b5b808601610ef78982610e30565b85526020850194505050602081019050610ec7565b5050509392505050565b600082601f830112610f2b57610f2a610d18565b5b8135610f3b848260208601610e8f565b91505092915050565b600080600080600080600060e0888a031215610f6357610f62610cd8565b5b6000610f718a828b01610d03565b975050602088013567ffffffffffffffff811115610f9257610f91610cdd565b5b610f9e8a828b01610e30565b965050604088013567ffffffffffffffff811115610fbf57610fbe610cdd565b5b610fcb8a828b01610e30565b955050606088013567ffffffffffffffff811115610fec57610feb610cdd565b5b610ff88a828b01610e30565b945050608088013567ffffffffffffffff81111561101957611018610cdd565b5b6110258a828b01610e30565b93505060a06110368a828b01610d03565b92505060c088013567ffffffffffffffff81111561105757611056610cdd565b5b6110638a828b01610f16565b91505092959891949750929550565b61107b81610ce2565b82525050565b60006020820190506110966000830184611072565b92915050565b6000602082840312156110b2576110b1610cd8565b5b60006110c084828501610d03565b91505092915050565b600081519050919050565b600082825260208201905092915050565b60005b838110156111035780820151818401526020810190506110e8565b60008484015250505050565b600061111a826110c9565b61112481856110d4565b93506111348185602086016110e5565b61113d81610d22565b840191505092915050565b600060c08201905061115d6000830189611072565b818103602083015261116f818861110f565b90508181036040830152611183818761110f565b90508181036060830152611197818661110f565b905081810360808301526111ab818561110f565b90506111ba60a0830184611072565b979650505050505050565b600073ffffffffffffffffffffffffffffffffffffffff82169050919050565b60006111f0826111c5565b9050919050565b611200816111e5565b82525050565b600060208201905061121b60008301846111f7565b92915050565b600081519050919050565b600082825260208201905092915050565b6000819050602082019050919050565b600082825260208201905092915050565b6000611269826110c9565b611273818561124d565b93506112838185602086016110e5565b61128c81610d22565b840191505092915050565b60006112a3838361125e565b905092915050565b6000602082019050919050565b60006112c382611221565b6112cd818561122c565b9350836020820285016112df8561123d565b8060005b8581101561131b57848403895281516112fc8582611297565b9450611307836112ab565b925060208a019950506001810190506112e3565b50829750879550505050505092915050565b600060e082019050611342600083018a611072565b8181036020830152611354818961110f565b90508181036040830152611368818861110f565b9050818103606083015261137c818761110f565b90508181036080830152611390818661110f565b905061139f60a0830185611072565b81810360c08301526113b181846112b8565b905098975050505050505050565b6113c8816111e5565b81146113d357600080fd5b50565b6000813590506113e5816113bf565b92915050565b60006020828403121561140157611400610cd8565b5b600061140f848285016113d6565b91505092915050565b7f4e487b7100000000000000000000000000000000000000000000000000000000600052602260045260246000fd5b6000600282049050600182168061145f57607f821691505b60208210810361147257611471611418565b5b50919050565b60008190508160005260206000209050919050565b60006020601f8301049050919050565b600082821b905092915050565b6000600883026114da7fffffffffffffffffffffffffffffffffffffffffffffffffffffffffffffffff8261149d565b6114e4868361149d565b95508019841693508086168417925050509392505050565b6000819050919050565b600061152161151c61151784610ce2565b6114fc565b610ce2565b9050919050565b6000819050919050565b61153b83611506565b61154f61154782611528565b8484546114aa565b825550505050565b600090565b611564611557565b61156f818484611532565b505050565b5b818110156115935761158860008261155c565b600181019050611575565b5050565b601f8211156115d8576115a981611478565b6115b28461148d565b810160208510156115c1578190505b6115d56115cd8561148d565b830182611574565b50505b505050565b600082821c905092915050565b60006115fb600019846008026115dd565b1980831691505092915050565b600061161483836115ea565b9150826002028217905092915050565b61162d826110c9565b67ffffffffffffffff81111561164657611645610d33565b5b6116508254611447565b61165b828285611597565b600060209050601f83116001811461168e576000841561167c578287015190505b6116868582611608565b8655506116ee565b601f19841661169c86611478565b60005b828110156116c45784890151825560018201915060208501945060208101905061169f565b868310156116e157848901516116dd601f8916826115ea565b8355505b6001600288020188555050505b505050505050565b600060408201905061170b6000830185611072565b818103602083015261171d818461110f565b90509392505050565b7f4e487b7100000000000000000000000000000000000000000000000000000000600052601160045260246000fd5b600061176082610ce2565b91507fffffffffffffffffffffffffffffffffffffffffffffffffffffffffffffffff820361179257611791611726565b5b600182019050919050565b7f4a6577656c727920646f6573206e6f7420657869737400000000000000000000600082015250565b60006117d36016836110d4565b91506117de8261179d565b602082019050919050565b60006020820190508181036000830152611802816117c6565b9050919050565b6000819050919050565b61182461181f82610ce2565b611809565b82525050565b60008160601b9050919050565b60006118428261182a565b9050919050565b600061185482611837565b9050919050565b61186c611867826111e5565b611849565b82525050565b600061187e8286611813565b60208201915061188e828561185b565b60148201915061189e8284611813565b602082019150819050949350505050565b7f494420636f6c6c6973696f6e2064657465637465640000000000000000000000600082015250565b60006118e56015836110d4565b91506118f0826118af565b602082019050919050565b60006020820190508181036000830152611914816118d8565b905091905056fea2646970667358221220e8feb7d2339e8e717933874c2a892998cf614e805faed2143d56e183f9b0bf1f64736f6c63430008180033",
  "linkReferences": {},
  "deployedLinkReferences": {}
}