{
  "_format": "hh-sol-artifact-1",
  "contractName": "JewelryManagement",
  "sourceName": "contracts/JewelryManagement.sol",
  "address": "0xf984D90474126B7BB7014Bed1349f8dA018CFffe",
  "abi": [
    {
      "inputs": [
        {
          "internalType": "address",
          "name": "_owner",
          "type": "address"
        }
      ],
      "stateMutability": "nonpayable",
      "type": "constructor"
    },
    {
      "inputs": [
        {
          "internalType": "address",
          "name": "owner",
          "type": "address"
        }
      ],
      "name": "OwnableInvalidOwner",
      "type": "error"
    },
    {
      "inputs": [
        {
          "internalType": "address",
          "name": "account",
          "type": "address"
        }
      ],
      "name": "OwnableUnauthorizedAccount",
      "type": "error"
    },
    {
      "anonymous": false,
      "inputs": [
        {
          "indexed": true,
          "internalType": "uint256",
          "name": "id",
          "type": "uint256"
        },
        {
          "indexed": false,
          "internalType": "uint256",
          "name": "weight",
          "type": "uint256"
        },
        {
          "indexed": false,
          "internalType": "string",
          "name": "hallmark",
          "type": "string"
        }
      ],
      "name": "JewelryAdded",
      "type": "event"
    },
    {
      "anonymous": false,
      "inputs": [
        {
          "indexed": true,
          "internalType": "address",
          "name": "previousOwner",
          "type": "address"
        },
        {
          "indexed": true,
          "internalType": "address",
          "name": "newOwner",
          "type": "address"
        }
      ],
      "name": "OwnershipTransferred",
      "type": "event"
    },
    {
      "inputs": [
        {
          "internalType": "string",
          "name": "_name",
          "type": "string"
        },
        {
          "internalType": "uint256",
          "name": "_price",
          "type": "uint256"
        },
        {
          "internalType": "uint256",
          "name": "_weight",
          "type": "uint256"
        },
        {
          "internalType": "string",
          "name": "_hallmark",
          "type": "string"
        },
        {
          "internalType": "string",
          "name": "_manufacturerDetails",
          "type": "string"
        },
        {
          "internalType": "string",
          "name": "_designerDetails",
          "type": "string"
        },
        {
          "internalType": "uint256",
          "name": "_purity",
          "type": "uint256"
        },
        {
          "internalType": "string[]",
          "name": "_metalDetails",
          "type": "string[]"
        }
      ],
      "name": "addJewelry",
      "outputs": [
        {
          "internalType": "uint256",
          "name": "",
          "type": "uint256"
        }
      ],
      "stateMutability": "nonpayable",
      "type": "function"
    },
    {
      "inputs": [
        {
          "internalType": "uint256",
          "name": "_id",
          "type": "uint256"
        }
      ],
      "name": "getJewelryDetails",
      "outputs": [
        {
          "internalType": "string",
          "name": "name",
          "type": "string"
        },
        {
          "internalType": "uint256",
          "name": "price",
          "type": "uint256"
        },
        {
          "internalType": "uint256",
          "name": "weight",
          "type": "uint256"
        },
        {
          "internalType": "string",
          "name": "hallmark",
          "type": "string"
        },
        {
          "internalType": "string",
          "name": "manufacturerDetails",
          "type": "string"
        },
        {
          "internalType": "string",
          "name": "designerDetails",
          "type": "string"
        },
        {
          "internalType": "uint256",
          "name": "purity",
          "type": "uint256"
        },
        {
          "internalType": "string[]",
          "name": "metalDetails",
          "type": "string[]"
        }
      ],
      "stateMutability": "view",
      "type": "function"
    },
    {
      "inputs": [],
      "name": "jewelryCount",
      "outputs": [
        {
          "internalType": "uint256",
          "name": "",
          "type": "uint256"
        }
      ],
      "stateMutability": "view",
      "type": "function"
    },
    {
      "inputs": [
        {
          "internalType": "uint256",
          "name": "",
          "type": "uint256"
        }
      ],
      "name": "jewelryList",
      "outputs": [
        {
          "internalType": "string",
          "name": "name",
          "type": "string"
        },
        {
          "internalType": "uint256",
          "name": "price",
          "type": "uint256"
        },
        {
          "internalType": "uint256",
          "name": "weight",
          "type": "uint256"
        },
        {
          "internalType": "string",
          "name": "hallmark",
          "type": "string"
        },
        {
          "internalType": "string",
          "name": "manufacturerDetails",
          "type": "string"
        },
        {
          "internalType": "string",
          "name": "designerDetails",
          "type": "string"
        },
        {
          "internalType": "uint256",
          "name": "purity",
          "type": "uint256"
        }
      ],
      "stateMutability": "view",
      "type": "function"
    },
    {
      "inputs": [],
      "name": "owner",
      "outputs": [
        {
          "internalType": "address",
          "name": "",
          "type": "address"
        }
      ],
      "stateMutability": "view",
      "type": "function"
    },
    {
      "inputs": [],
      "name": "renounceOwnership",
      "outputs": [],
      "stateMutability": "nonpayable",
      "type": "function"
    },
    {
      "inputs": [
        {
          "internalType": "address",
          "name": "newOwner",
          "type": "address"
        }
      ],
      "name": "transferOwnership",
      "outputs": [],
      "stateMutability": "nonpayable",
      "type": "function"
    }
  ],
  "bytecode": "0x60806040523480156200001157600080fd5b5060405162001c3738038062001c378339818101604052810190620000379190620001fc565b80600073ffffffffffffffffffffffffffffffffffffffff168173ffffffffffffffffffffffffffffffffffffffff1603620000ad5760006040517f1e4fbdf7000000000000000000000000000000000000000000000000000000008152600401620000a491906200023f565b60405180910390fd5b620000be81620000ce60201b60201c565b506000600381905550506200025c565b60008060009054906101000a900473ffffffffffffffffffffffffffffffffffffffff169050816000806101000a81548173ffffffffffffffffffffffffffffffffffffffff021916908373ffffffffffffffffffffffffffffffffffffffff1602179055508173ffffffffffffffffffffffffffffffffffffffff168173ffffffffffffffffffffffffffffffffffffffff167f8be0079c531659141344cd1fd0a4f28419497f9722a3daafe3b4186f6b6457e060405160405180910390a35050565b600080fd5b600073ffffffffffffffffffffffffffffffffffffffff82169050919050565b6000620001c48262000197565b9050919050565b620001d681620001b7565b8114620001e257600080fd5b50565b600081519050620001f681620001cb565b92915050565b60006020828403121562000215576200021462000192565b5b60006200022584828501620001e5565b91505092915050565b6200023981620001b7565b82525050565b60006020820190506200025660008301846200022e565b92915050565b6119cb806200026c6000396000f3fe608060405234801561001057600080fd5b506004361061007d5760003560e01c8063822df5561161005b578063822df556146100da5780638da5cb5b14610110578063c95a75361461012e578063f2fde38b146101655761007d565b80631457858914610082578063590091a2146100b2578063715018a6146100d0575b600080fd5b61009c60048036038101906100979190610f8d565b610181565b6040516100a991906110de565b60405180910390f35b6100ba61030e565b6040516100c791906110de565b60405180910390f35b6100d8610314565b005b6100f460048036038101906100ef91906110f9565b610328565b60405161010797969594939291906111a5565b60405180910390f35b61011861058a565b6040516101259190611271565b60405180910390f35b610148600480360381019061014391906110f9565b6105b3565b60405161015c989796959493929190611398565b60405180910390f35b61017f600480360381019061017a9190611465565b6109c7565b005b600061018b610a4d565b6000610195610ad4565b905060006040518061010001604052808c81526020018b81526020018a8152602001898152602001888152602001878152602001868152602001858152509050806001600084815260200190815260200160002060008201518160000190816101fe919061169e565b5060208201518160010155604082015181600201556060820151816003019081610228919061169e565b50608082015181600401908161023e919061169e565b5060a0820151816005019081610254919061169e565b5060c0820151816006015560e082015181600701908051906020019061027b929190610c3d565b5090505060016002600084815260200190815260200160002060006101000a81548160ff021916908315150217905550817f3a8a8f60fa05ac636726779bc299e193e53edc0d76dd752186d44f5525ee95ff8a8a6040516102dd929190611770565b60405180910390a2600360008154809291906102f8906117cf565b9190505550819250505098975050505050505050565b60035481565b61031c610a4d565b6103266000610b71565b565b600160205280600052604060002060009150905080600001805461034b906114c1565b80601f0160208091040260200160405190810160405280929190818152602001828054610377906114c1565b80156103c45780601f10610399576101008083540402835291602001916103c4565b820191906000526020600020905b8154815290600101906020018083116103a757829003601f168201915b5050505050908060010154908060020154908060030180546103e5906114c1565b80601f0160208091040260200160405190810160405280929190818152602001828054610411906114c1565b801561045e5780601f106104335761010080835404028352916020019161045e565b820191906000526020600020905b81548152906001019060200180831161044157829003601f168201915b505050505090806004018054610473906114c1565b80601f016020809104026020016040519081016040528092919081815260200182805461049f906114c1565b80156104ec5780601f106104c1576101008083540402835291602001916104ec565b820191906000526020600020905b8154815290600101906020018083116104cf57829003601f168201915b505050505090806005018054610501906114c1565b80601f016020809104026020016040519081016040528092919081815260200182805461052d906114c1565b801561057a5780601f1061054f5761010080835404028352916020019161057a565b820191906000526020600020905b81548152906001019060200180831161055d57829003601f168201915b5050505050908060060154905087565b60008060009054906101000a900473ffffffffffffffffffffffffffffffffffffffff16905090565b6060600080606080606060006060600260008a815260200190815260200160002060009054906101000a900460ff16610621576040517f08c379a000000000000000000000000000000000000000000000000000000000815260040161061890611863565b60405180910390fd5b6000600160008b815260200190815260200160002060405180610100016040529081600082018054610652906114c1565b80601f016020809104026020016040519081016040528092919081815260200182805461067e906114c1565b80156106cb5780601f106106a0576101008083540402835291602001916106cb565b820191906000526020600020905b8154815290600101906020018083116106ae57829003601f168201915b5050505050815260200160018201548152602001600282015481526020016003820180546106f8906114c1565b80601f0160208091040260200160405190810160405280929190818152602001828054610724906114c1565b80156107715780601f1061074657610100808354040283529160200191610771565b820191906000526020600020905b81548152906001019060200180831161075457829003601f168201915b5050505050815260200160048201805461078a906114c1565b80601f01602080910402602001604051908101604052809291908181526020018280546107b6906114c1565b80156108035780601f106107d857610100808354040283529160200191610803565b820191906000526020600020905b8154815290600101906020018083116107e657829003601f168201915b5050505050815260200160058201805461081c906114c1565b80601f0160208091040260200160405190810160405280929190818152602001828054610848906114c1565b80156108955780601f1061086a57610100808354040283529160200191610895565b820191906000526020600020905b81548152906001019060200180831161087857829003601f168201915b505050505081526020016006820154815260200160078201805480602002602001604051908101604052809291908181526020016000905b828210156109795783829060005260206000200180546108ec906114c1565b80601f0160208091040260200160405190810160405280929190818152602001828054610918906114c1565b80156109655780601f1061093a57610100808354040283529160200191610965565b820191906000526020600020905b81548152906001019060200180831161094857829003601f168201915b5050505050815260200190600101906108cd565b50505050815250509050806000015181602001518260400151836060015184608001518560a001518660c001518760e001519850985098509850985098509850985050919395975091939597565b6109cf610a4d565b600073ffffffffffffffffffffffffffffffffffffffff168173ffffffffffffffffffffffffffffffffffffffff1603610a415760006040517f1e4fbdf7000000000000000000000000000000000000000000000000000000008152600401610a389190611271565b60405180910390fd5b610a4a81610b71565b50565b610a55610c35565b73ffffffffffffffffffffffffffffffffffffffff16610a7361058a565b73ffffffffffffffffffffffffffffffffffffffff1614610ad257610a96610c35565b6040517f118cdaa7000000000000000000000000000000000000000000000000000000008152600401610ac99190611271565b60405180910390fd5b565b6000804233600354604051602001610aee939291906118ec565b6040516020818303038152906040528051906020012060001c90506002600082815260200190815260200160002060009054906101000a900460ff1615610b6a576040517f08c379a0000000000000000000000000000000000000000000000000000000008152600401610b6190611975565b60405180910390fd5b8091505090565b60008060009054906101000a900473ffffffffffffffffffffffffffffffffffffffff169050816000806101000a81548173ffffffffffffffffffffffffffffffffffffffff021916908373ffffffffffffffffffffffffffffffffffffffff1602179055508173ffffffffffffffffffffffffffffffffffffffff168173ffffffffffffffffffffffffffffffffffffffff167f8be0079c531659141344cd1fd0a4f28419497f9722a3daafe3b4186f6b6457e060405160405180910390a35050565b600033905090565b828054828255906000526020600020908101928215610c85579160200282015b82811115610c84578251829081610c74919061169e565b5091602001919060010190610c5d565b5b509050610c929190610c96565b5090565b5b80821115610cb65760008181610cad9190610cba565b50600101610c97565b5090565b508054610cc6906114c1565b6000825580601f10610cd85750610cf7565b601f016020900490600052602060002090810190610cf69190610cfa565b5b50565b5b80821115610d13576000816000905550600101610cfb565b5090565b6000604051905090565b600080fd5b600080fd5b600080fd5b600080fd5b6000601f19601f8301169050919050565b7f4e487b7100000000000000000000000000000000000000000000000000000000600052604160045260246000fd5b610d7e82610d35565b810181811067ffffffffffffffff82111715610d9d57610d9c610d46565b5b80604052505050565b6000610db0610d17565b9050610dbc8282610d75565b919050565b600067ffffffffffffffff821115610ddc57610ddb610d46565b5b610de582610d35565b9050602081019050919050565b82818337600083830152505050565b6000610e14610e0f84610dc1565b610da6565b905082815260208101848484011115610e3057610e2f610d30565b5b610e3b848285610df2565b509392505050565b600082601f830112610e5857610e57610d2b565b5b8135610e68848260208601610e01565b91505092915050565b6000819050919050565b610e8481610e71565b8114610e8f57600080fd5b50565b600081359050610ea181610e7b565b92915050565b600067ffffffffffffffff821115610ec257610ec1610d46565b5b602082029050602081019050919050565b600080fd5b6000610eeb610ee684610ea7565b610da6565b90508083825260208201905060208402830185811115610f0e57610f0d610ed3565b5b835b81811015610f5557803567ffffffffffffffff811115610f3357610f32610d2b565b5b808601610f408982610e43565b85526020850194505050602081019050610f10565b5050509392505050565b600082601f830112610f7457610f73610d2b565b5b8135610f84848260208601610ed8565b91505092915050565b600080600080600080600080610100898b031215610fae57610fad610d21565b5b600089013567ffffffffffffffff811115610fcc57610fcb610d26565b5b610fd88b828c01610e43565b9850506020610fe98b828c01610e92565b9750506040610ffa8b828c01610e92565b965050606089013567ffffffffffffffff81111561101b5761101a610d26565b5b6110278b828c01610e43565b955050608089013567ffffffffffffffff81111561104857611047610d26565b5b6110548b828c01610e43565b94505060a089013567ffffffffffffffff81111561107557611074610d26565b5b6110818b828c01610e43565b93505060c06110928b828c01610e92565b92505060e089013567ffffffffffffffff8111156110b3576110b2610d26565b5b6110bf8b828c01610f5f565b9150509295985092959890939650565b6110d881610e71565b82525050565b60006020820190506110f360008301846110cf565b92915050565b60006020828403121561110f5761110e610d21565b5b600061111d84828501610e92565b91505092915050565b600081519050919050565b600082825260208201905092915050565b60005b83811015611160578082015181840152602081019050611145565b60008484015250505050565b600061117782611126565b6111818185611131565b9350611191818560208601611142565b61119a81610d35565b840191505092915050565b600060e08201905081810360008301526111bf818a61116c565b90506111ce60208301896110cf565b6111db60408301886110cf565b81810360608301526111ed818761116c565b90508181036080830152611201818661116c565b905081810360a0830152611215818561116c565b905061122460c08301846110cf565b98975050505050505050565b600073ffffffffffffffffffffffffffffffffffffffff82169050919050565b600061125b82611230565b9050919050565b61126b81611250565b82525050565b60006020820190506112866000830184611262565b92915050565b600081519050919050565b600082825260208201905092915050565b6000819050602082019050919050565b600082825260208201905092915050565b60006112d482611126565b6112de81856112b8565b93506112ee818560208601611142565b6112f781610d35565b840191505092915050565b600061130e83836112c9565b905092915050565b6000602082019050919050565b600061132e8261128c565b6113388185611297565b93508360208202850161134a856112a8565b8060005b8581101561138657848403895281516113678582611302565b945061137283611316565b925060208a0199505060018101905061134e565b50829750879550505050505092915050565b60006101008201905081810360008301526113b3818b61116c565b90506113c2602083018a6110cf565b6113cf60408301896110cf565b81810360608301526113e1818861116c565b905081810360808301526113f5818761116c565b905081810360a0830152611409818661116c565b905061141860c08301856110cf565b81810360e083015261142a8184611323565b90509998505050505050505050565b61144281611250565b811461144d57600080fd5b50565b60008135905061145f81611439565b92915050565b60006020828403121561147b5761147a610d21565b5b600061148984828501611450565b91505092915050565b7f4e487b7100000000000000000000000000000000000000000000000000000000600052602260045260246000fd5b600060028204905060018216806114d957607f821691505b6020821081036114ec576114eb611492565b5b50919050565b60008190508160005260206000209050919050565b60006020601f8301049050919050565b600082821b905092915050565b6000600883026115547fffffffffffffffffffffffffffffffffffffffffffffffffffffffffffffffff82611517565b61155e8683611517565b95508019841693508086168417925050509392505050565b6000819050919050565b600061159b61159661159184610e71565b611576565b610e71565b9050919050565b6000819050919050565b6115b583611580565b6115c96115c1826115a2565b848454611524565b825550505050565b600090565b6115de6115d1565b6115e98184846115ac565b505050565b5b8181101561160d576116026000826115d6565b6001810190506115ef565b5050565b601f82111561165257611623816114f2565b61162c84611507565b8101602085101561163b578190505b61164f61164785611507565b8301826115ee565b50505b505050565b600082821c905092915050565b600061167560001984600802611657565b1980831691505092915050565b600061168e8383611664565b9150826002028217905092915050565b6116a782611126565b67ffffffffffffffff8111156116c0576116bf610d46565b5b6116ca82546114c1565b6116d5828285611611565b600060209050601f83116001811461170857600084156116f6578287015190505b6117008582611682565b865550611768565b601f198416611716866114f2565b60005b8281101561173e57848901518255600182019150602085019450602081019050611719565b8683101561175b5784890151611757601f891682611664565b8355505b6001600288020188555050505b505050505050565b600060408201905061178560008301856110cf565b8181036020830152611797818461116c565b90509392505050565b7f4e487b7100000000000000000000000000000000000000000000000000000000600052601160045260246000fd5b60006117da82610e71565b91507fffffffffffffffffffffffffffffffffffffffffffffffffffffffffffffffff820361180c5761180b6117a0565b5b600182019050919050565b7f4a6577656c727920646f6573206e6f7420657869737400000000000000000000600082015250565b600061184d601683611131565b915061185882611817565b602082019050919050565b6000602082019050818103600083015261187c81611840565b9050919050565b6000819050919050565b61189e61189982610e71565b611883565b82525050565b60008160601b9050919050565b60006118bc826118a4565b9050919050565b60006118ce826118b1565b9050919050565b6118e66118e182611250565b6118c3565b82525050565b60006118f8828661188d565b60208201915061190882856118d5565b601482019150611918828461188d565b602082019150819050949350505050565b7f494420636f6c6c6973696f6e2064657465637465640000000000000000000000600082015250565b600061195f601583611131565b915061196a82611929565b602082019050919050565b6000602082019050818103600083015261198e81611952565b905091905056fea26469706673582212203c913168ab57aae0ef4ed8f2b102d14b7151ab6440c78140f24fa1c16ec6b58164736f6c63430008180033",
  "linkReferences": {},
  "deployedLinkReferences": {}
}